:100000000C9435000C945D000C945D000C945D0024
:100010000C945D000C945D000C945D000C945D00EC
:100020000C945D000C945D000C945D000C945D00DC
:100030000C945D000C945D000C945D000C945D00CC
:100040000C947D010C945D000C94ED010C94C7019F
:100050000C945D000C945D000C945D000C945D00AC
:100060000C945D000C945D00020311241FBECFEFC1
:10007000D8E0DEBFCDBF11E0A0E0B1E0E8E7F6E0F8
:1000800002C005900D92AC32B107D9F721E0ACE285
:10009000B1E001C01D92A23DB207E1F710E0C5E357
:1000A000D0E004C02197FE010E942F03C433D10782
:1000B000C9F70E941F020C943A030C940000CF92DF
:1000C000DF92EF92FF920F931F93CF93DF936C0118
:1000D0007A018B01C0E0D0E0CE15DF0589F0D801B0
:1000E0006D918D01D601ED91FC910190F081E02D93
:1000F000C6010995892B11F47E0102C02196ECCF2F
:10010000C701DF91CF911F910F91FF90EF90DF908A
:10011000CF900895089580E090E00895FC01538DFC
:10012000448D252F30E0842F90E0821B930B5417D1
:1001300010F0CF96089501970895FC01918D828D5E
:10014000981761F0828DDF01A80FB11D5D968C912B
:10015000928D9F5F9F73928F90E008958FEF9FEF36
:100160000895FC01918D828D981731F0828DE80FF2
:10017000F11D858D90E008958FEF9FEF0895FC01AC
:10018000918D228D892F90E0805C9F4F821B910979
:100190008F739927089585E391E00E94BF0021E0C5
:1001A000892B09F420E0822F0895FC01848DDF0162
:1001B000A80FB11DA35ABF4F2C91848D90E00196DA
:1001C0008F739927848FA689B7892C93A089B189C9
:1001D0008C9180648C93938D848D981306C00288D3
:1001E000F389E02D80818F7D80830895EF92FF92C7
:1001F0000F931F93CF93DF93EC0181E0888F9B8D4A
:100200008C8D981305C0E889F989808185FD24C00B
:10021000F62E0B8D10E00F5F1F4F0F731127E02E8E
:100220008C8DE8120CC00FB607FCFACFE889F9896B
:10023000808185FFF5CFCE010E94D500F1CF8B8D57
:10024000FE01E80FF11DE35AFF4FF0820B8FEA89A0
:10025000FB898081806207C0EE89FF896083E8891D
:10026000F98980818064808381E090E0DF91CF9183
:100270001F910F91FF90EF900895CF93DF93EC01C2
:10028000888D8823C9F0EA89FB89808185FD05C0B6
:10029000A889B9898C9186FD0FC00FB607FCF5CFF0
:1002A000808185FFF2CFA889B9898C9185FFEDCF38
:1002B000CE010E94D500E7CFDF91CF91089580E075
:1002C00090E0892B29F00E94CB0081110C94000052
:1002D0000895009769F0FC0101900020E9F731973B
:1002E000AF01481B590BBC0185E391E00C945F0002
:1002F00080E090E008950E9435031F920F920FB6A0
:100300000F9211242F933F938F939F93AF93BF939B
:100310008091310190913201A0913301B09134016B
:100320003091300123E0230F2D3720F40196A11DD9
:10033000B11D05C026E8230F0296A11DB11D209313
:1003400030018093310190933201A0933301B09337
:10035000340180912C0190912D01A0912E01B0913A
:100360002F010196A11DB11D80932C0190932D01A9
:10037000A0932E01B0932F01BF91AF919F918F91C8
:100380003F912F910F900FBE0F901F9018951F92C5
:100390000F920FB60F9211242F933F934F935F93B9
:1003A0006F937F938F939F93AF93BF93EF93FF933D
:1003B00085E391E00E94D500FF91EF91BF91AF914D
:1003C0009F918F917F916F915F914F913F912F916D
:1003D0000F900FBE0F901F9018951F920F920FB69F
:1003E0000F9211242F938F939F93EF93FF93E0919C
:1003F0004501F09146018081E0914B01F0914C0163
:1004000082FD12C0908180914E018F5F8F73209189
:100410004F01821751F0E0914E01F0E0EB5CFE4F8E
:10042000958F80934E0101C08081FF91EF919F9144
:100430008F912F910F900FBE0F901F901895CF9313
:10044000DF93CDB7DEB7AD970FB6F894DEBF0FBE22
:10045000CDBF789484B5826084BD84B5816084BD4D
:1004600085B5826085BD85B5816085BD80916E0052
:10047000816080936E001092810080918100826083
:1004800080938100809181008160809381008091C0
:1004900080008160809380008091B10084608093AF
:1004A000B1008091B00081608093B00080917A00AB
:1004B000846080937A0080917A00826080937A00D1
:1004C00080917A00816080937A0080917A008068C0
:1004D00080937A001092C100E0914501F0914601AD
:1004E00082E08083E0914101F09142011082E0912D
:1004F0004301F09144018FEC808310924D01E09113
:100500004901F0914A0186E08083E0914701F09132
:100510004801808180618083E0914701F09148012A
:10052000808188608083E0914701F091480180815B
:1005300080688083E0914701F091480180818F7D40
:1005400080838CE0E0E0F1E0DE01929601900D9274
:100550008A95E1F78E010E5D1F4F7E018EE2E80E57
:10056000F11CF801C080D180C114D10429F48EE1BE
:1005700091E00E94690117C0C6010197409728F4D5
:100580008FE191E00E94690107C0FFEFCF16D1040F
:1005900019F481E291E02BC08EEFC816D10419F452
:1005A00086E291E024C0A601DD0C660B770B19A250
:1005B000FE01B196DB01CA018F709927AA27BB27DC
:1005C00024E076956795579547952A95D1F7319709
:1005D0008A309105A105B10510F4805D01C0895CE8
:1005E0008083411551056105710521F7CF010E94F6
:1005F0006901F801119211928F01EE15FF0509F0C2
:10060000B0CFFFCFE5E3F1E01382128288EE93E0F2
:10061000A0E0B0E084839583A683B78380E191E076
:100620009183808385EC90E09587848784EC90E0CB
:100630009787868780EC90E0918B808B81EC90E0AF
:10064000938B828B82EC90E0958B848B86EC90E090
:10065000978B868B118E128E138E148E0895EE0F4B
:10066000FF1F0590F491E02D099481E090E0F8944B
:080670000C943A03F894FFCF4B
:100678000A001F002D000100FE00FF00000000001E
:10068800F6005F008E003D01BF009D00B1003030D4
:0C0698000046454644004645464300002D
:00000001FF
