:100000000C9435000C945D000C945D000C945D0024
:100010000C945D000C945D000C945D000C945D00EC
:100020000C945D000C945D000C945D000C945D00DC
:100030000C945D000C945D000C945D000C945D00CC
:100040000C9401020C945D000C9471020C944B0210
:100050000C945D000C945D000C945D000C945D00AC
:100060000C945D000C945D00EA0311241FBECFEFD9
:10007000D8E0DEBFCDBF11E0A0E0B1E0ECE8F8E0F1
:1000800002C005900D92A633B107D9F722E0A6E38E
:10009000B1E001C01D92AB3AB207E1F710E0C5E351
:1000A000D0E004C02197FE010E943904C433D10777
:1000B000C9F70E94A3020C9444040C940000CF9250
:1000C000DF92EF92FF920F931F93CF93DF936C0118
:1000D0007A018B01C0E0D0E0CE15DF0589F0D801B0
:1000E0006D918D01D601ED91FC910190F081E02D93
:1000F000C6010995892B11F47E0102C02196ECCF2F
:10010000C701DF91CF911F910F91FF90EF90DF908A
:10011000CF900895089580E090E00895FC01538DFC
:10012000448D252F30E0842F90E0821B930B5417D1
:1001300010F0CF96089501970895FC01918D828D5E
:10014000981761F0828DDF01A80FB11D5D968C912B
:10015000928D9F5F9F73928F90E008958FEF9FEF36
:100160000895FC01918D828D981731F0828DE80FF2
:10017000F11D858D90E008958FEF9FEF0895FC01AC
:10018000918D228D892F90E0805C9F4F821B910979
:100190008F73992708958EE092E00E94BF0021E0BE
:1001A000892B09F420E0822F0895FC01848DDF0162
:1001B000A80FB11DA35ABF4F2C91848D90E00196DA
:1001C0008F739927848FA689B7892C93A089B189C9
:1001D0008C9180648C93938D848D981306C00288D3
:1001E000F389E02D80818F7D80830895EF92FF92C7
:1001F0000F931F93CF93DF93EC0181E0888F9B8D4A
:100200008C8D981305C0E889F989808185FD24C00B
:10021000F62E0B8D10E00F5F1F4F0F731127E02E8E
:100220008C8DE8120CC00FB607FCFACFE889F9896B
:10023000808185FFF5CFCE010E94D500F1CF8B8D57
:10024000FE01E80FF11DE35AFF4FF0820B8FEA89A0
:10025000FB898081806207C0EE89FF896083E8891D
:10026000F98980818064808381E090E0DF91CF9183
:100270001F910F91FF90EF900895CF93DF93EC01C2
:10028000888D8823C9F0EA89FB89808185FD05C0B6
:10029000A889B9898C9186FD0FC00FB607FCF5CFF0
:1002A000808185FFF2CFA889B9898C9185FFEDCF38
:1002B000CE010E94D500E7CFDF91CF91089580E075
:1002C00090E0892B29F00E94CB0081110C94000052
:1002D00008959C01205331092A30310510F4C901D9
:1002E00008959C01215431092630310510F4C79737
:1002F00008959C01215631092630310518F487559F
:10030000910908958FE090E00895009769F0FC014D
:1003100001900020E9F73197AF01481B590BBC0150
:100320008EE092E00C945F0080E090E008958F9260
:100330009F92AF92BF920F931F93CF93DF93CDB74E
:10034000DEB7A1970FB6F894DEBF0FBECDBF19A2DE
:10035000423008F44AE08E010F5D1F4F842E912C2D
:10036000A12CB12CA50194010E941704E62FB9011C
:10037000CA0101501109EA3014F4E05D01C0E95CE2
:10038000D801EC93232B242B252B61F7C8010E9465
:100390008501A1960FB6F894DEBF0FBECDBFDF91E9
:1003A000CF911F910F91BF90AF909F908F90089524
:1003B000CF92DF92EF92FF92CF93DF936B017C019C
:1003C000E0910E02F0910F020190F081E02D6DE2BC
:1003D0008EE092E00995EC0166277727CB016C1936
:1003E0007D098E099F094AE00E9497018C0F9D1F8D
:1003F000DF91CF91FF90EF90DF90CF9008950E9412
:100400003F041F920F920FB60F9211242F933F9328
:100410008F939F93AF93BF9380910A0290910B02A9
:10042000A0910C02B0910D023091090223E0230F3C
:100430002D3720F40196A11DB11D05C026E8230F1C
:100440000296A11DB11D2093090280930A02909388
:100450000B02A0930C02B0930D02809105029091C3
:100460000602A0910702B09108020196A11DB11DDC
:100470008093050290930602A0930702B0930802AE
:10048000BF91AF919F918F913F912F910F900FBE90
:100490000F901F9018951F920F920FB60F92112474
:1004A0002F933F934F935F936F937F938F939F937C
:1004B000AF93BF93EF93FF938EE092E00E94D5003D
:1004C000FF91EF91BF91AF919F918F917F916F912C
:1004D0005F914F913F912F910F900FBE0F901F9002
:1004E00018951F920F920FB60F9211242F938F938E
:1004F0009F93EF93FF93E0911E02F0911F02808182
:10050000E0912402F091250282FD12C09081809139
:1005100027028F5F8F7320912802821751F0E0919C
:100520002702F0E0E25FFD4F958F8093270201C024
:100530008081FF91EF919F918F912F910F900FBE2E
:100540000F901F901895789484B5826084BD84B50F
:10055000816084BD85B5826085BD85B5816085BDBE
:1005600080916E00816080936E0010928100809176
:1005700081008260809381008091810081608093FE
:100580008100809180008160809380008091B10023
:1005900084608093B1008091B00081608093B0004E
:1005A00080917A00846080937A0080917A008260E2
:1005B00080937A0080917A00816080937A008091A4
:1005C0007A00806880937A001092C100E0911E0248
:1005D000F0911F0282E08083E0911A02F0911B02E9
:1005E0001082E0911C02F0911D028FEC808310922A
:1005F0002602E0912202F091230286E08083E091BE
:100600002002F0912102808180618083E0912002AC
:10061000F0912102808188608083E0912002F09136
:100620002102808180688083E0912002F091210284
:1006300080818F7D808311E08EE092E00E94BF0078
:10064000181619060CF099C0C0910302D09104024B
:100650008EE092E00E949D00FE01EE0FFF1FE55C20
:10066000FE4F9183808310933A01C0FF7CC02FB767
:10067000F89480910A0290910B02A0910C02B09123
:100680000D022FBF8093360190933701A09338015C
:10069000B0933901C0910302D0910402FE01EE0F24
:1006A000FF1FE75CFE4F8081082E000C990B0E9413
:1006B00069017C01FE01EE0FFF1FE55CFE4F8081AA
:1006C000082E000C990B0E946901AC019E01D7FF16
:1006D00002C02F5F3F4F2E7FF901E55CFE4FC7013F
:1006E00024E0880F991F2A95E1F7840F951F9183C5
:1006F000808382E191E00E948501809103029091C4
:10070000040297FD01969C0135952795B901032EAA
:10071000000C880B990B37FF03C00E94D80103C05F
:100720004AE00E9497018BE191E00E94850180914F
:1007300003029091040297FD01968E7FFC01E55C17
:10074000FE4F60817181072E000C880B990B97FF7B
:1007500003C00E94D80103C04AE00E9497018EE1C5
:1007600091E00E948501809103029091040201961C
:1007700090930402809303025FCF809136019091A1
:100780003701A0913801B09139010A96A11DB11D20
:100790002FB7F89440910A0250910B0260910C021D
:1007A00070910D022FBF481759076A077B0720F089
:1007B00080913A01811103C00E945F013DCF81E227
:1007C00091E00E9485018EE191E00E9485011092E6
:1007D0003A01F2CFEEE0F2E01382128288EE93E06B
:1007E000A0E0B0E084839583A683B78384E091E0A2
:1007F0009183808385EC90E09587848784EC90E0FA
:100800009787868780EC90E0918B808B81EC90E0DD
:10081000938B828B82EC90E0958B848B86EC90E0BE
:10082000978B868B118E128E138E148E0895A1E2F3
:100830001A2EAA1BBB1BFD010DC0AA1FBB1FEE1F5A
:10084000FF1FA217B307E407F50720F0A21BB30BA5
:10085000E40BF50B661F771F881F991F1A9469F721
:1008600060957095809590959B01AC01BD01CF017D
:100870000895EE0FFF1F0590F491E02D099481E09B
:0C08800090E0F8940C944404F894FFCF2E
:10088C0000000000F6005F008E003D01BF009D00DF
:10089C00B100202020646174615B005D3D000D0A95
:1008AC000074726162736C6174696F6E206973207D
:0608BC006F76657200007A
:00000001FF
